{
  "contractName": "BlockchainForPeace",
  "abi": [
    {
      "constant": true,
      "inputs": [],
      "name": "charity",
      "outputs": [
        {
          "name": "",
          "type": "address"
        }
      ],
      "payable": false,
      "stateMutability": "view",
      "type": "function"
    },
    {
      "constant": true,
      "inputs": [
        {
          "name": "",
          "type": "address"
        }
      ],
      "name": "donors",
      "outputs": [
        {
          "name": "message",
          "type": "string"
        },
        {
          "name": "value",
          "type": "uint256"
        }
      ],
      "payable": false,
      "stateMutability": "view",
      "type": "function"
    },
    {
      "constant": true,
      "inputs": [],
      "name": "raised",
      "outputs": [
        {
          "name": "",
          "type": "uint256"
        }
      ],
      "payable": false,
      "stateMutability": "view",
      "type": "function"
    },
    {
      "inputs": [],
      "payable": false,
      "stateMutability": "nonpayable",
      "type": "constructor"
    },
    {
      "anonymous": false,
      "inputs": [
        {
          "indexed": true,
          "name": "from",
          "type": "address"
        },
        {
          "indexed": false,
          "name": "amount",
          "type": "uint256"
        },
        {
          "indexed": false,
          "name": "message",
          "type": "string"
        }
      ],
      "name": "Donate",
      "type": "event"
    },
    {
      "constant": false,
      "inputs": [],
      "name": "fallback",
      "outputs": [],
      "payable": true,
      "stateMutability": "payable",
      "type": "function"
    },
    {
      "constant": false,
      "inputs": [
        {
          "name": "_message",
          "type": "string"
        }
      ],
      "name": "messageForPeace",
      "outputs": [],
      "payable": true,
      "stateMutability": "payable",
      "type": "function"
    }
  ],
  "bytecode": "0x608060405234801561001057600080fd5b5033600160006101000a81548173ffffffffffffffffffffffffffffffffffffffff021916908373ffffffffffffffffffffffffffffffffffffffff1602179055506106c6806100616000396000f30060806040526004361061006d576000357c0100000000000000000000000000000000000000000000000000000000900463ffffffff168063552079dc14610072578063934aa0231461007c578063a9b5ae83146100d3578063ca0cdea81461012f578063f0ea4bfc146101f2575b600080fd5b61007a61021d565b005b34801561008857600080fd5b506100916102de565b604051808273ffffffffffffffffffffffffffffffffffffffff1673ffffffffffffffffffffffffffffffffffffffff16815260200191505060405180910390f35b61012d600480360381019080803590602001908201803590602001908080601f0160208091040260200160405190810160405280939291908181526020018383808284378201915050505050509192919290505050610304565b005b34801561013b57600080fd5b50610170600480360381019080803573ffffffffffffffffffffffffffffffffffffffff169060200190929190505050610533565b6040518080602001838152602001828103825284818151815260200191508051906020019080838360005b838110156101b657808201518184015260208101905061019b565b50505050905090810190601f1680156101e35780820380516001836020036101000a031916815260200191505b50935050505060405180910390f35b3480156101fe57600080fd5b506102076105ef565b6040518082815260200191505060405180910390f35b34600260003373ffffffffffffffffffffffffffffffffffffffff1673ffffffffffffffffffffffffffffffffffffffff16815260200190815260200160002060010181905550346000808282540192505081905550600160009054906101000a900473ffffffffffffffffffffffffffffffffffffffff1673ffffffffffffffffffffffffffffffffffffffff166108fc349081150290604051600060405180830381858888f193505050501580156102db573d6000803e3d6000fd5b50565b600160009054906101000a900473ffffffffffffffffffffffffffffffffffffffff1681565b34600260003373ffffffffffffffffffffffffffffffffffffffff1673ffffffffffffffffffffffffffffffffffffffff168152602001908152602001600020600101600082825401925050819055506000600260003373ffffffffffffffffffffffffffffffffffffffff1673ffffffffffffffffffffffffffffffffffffffff16815260200190815260200160002060010154141515156103a657600080fd5b80600260003373ffffffffffffffffffffffffffffffffffffffff1673ffffffffffffffffffffffffffffffffffffffff16815260200190815260200160002060000190805190602001906103fc9291906105f5565b50600160009054906101000a900473ffffffffffffffffffffffffffffffffffffffff1673ffffffffffffffffffffffffffffffffffffffff166108fc349081150290604051600060405180830381858888f19350505050158015610465573d6000803e3d6000fd5b503460008082825401925050819055503373ffffffffffffffffffffffffffffffffffffffff167f4c4cf652c6f14d29f3d8b821ba41309afba5bf3a6f10b64d61665a235049711d34836040518083815260200180602001828103825283818151815260200191508051906020019080838360005b838110156104f55780820151818401526020810190506104da565b50505050905090810190601f1680156105225780820380516001836020036101000a031916815260200191505b50935050505060405180910390a250565b6002602052806000526040600020600091509050806000018054600181600116156101000203166002900480601f0160208091040260200160405190810160405280929190818152602001828054600181600116156101000203166002900480156105df5780601f106105b4576101008083540402835291602001916105df565b820191906000526020600020905b8154815290600101906020018083116105c257829003601f168201915b5050505050908060010154905082565b60005481565b828054600181600116156101000203166002900490600052602060002090601f016020900481019282601f1061063657805160ff1916838001178555610664565b82800160010185558215610664579182015b82811115610663578251825591602001919060010190610648565b5b5090506106719190610675565b5090565b61069791905b8082111561069357600081600090555060010161067b565b5090565b905600a165627a7a7230582026d6dcb96cf191b6deb49e4d5e7eb43509feff89b63baa4a710f2d78de0da9d50029",
  "source": "pragma solidity ^0.4.24;\n\ncontract BlockchainForPeace {\n    \n\n    // to see the total raised \n    uint public raised;\n    address public charity; \n    \n    //struct for the donation \n    struct Donation {\n        string message; \n        uint value; \n    }\n    //mapping an address to the donation struct \n    mapping (address => Donation) public donors;\n    event Donate(address indexed from, uint amount, string message);\n    \n    //constructor to initiate the address of the charity being donated to\n    constructor () public {\n        charity = msg.sender;\n    }\n   \n    // payable function which auto transfers money to charity address, collects the value and increases the total value counter.\n    function fallback() payable public {\n        donors[msg.sender].value = msg.value; \n        raised += msg.value;\n        charity.transfer(msg.value);\n    }\n    // optional message to be sent with donation, peace message.\n    function messageForPeace(string _message) payable public {\n        donors[msg.sender].value += msg.value;\n        require(donors[msg.sender].value != 0);\n        donors[msg.sender].message = _message;\n        charity.transfer(msg.value);\n        raised += msg.value;\n        emit Donate(msg.sender, msg.value, _message);\n    }\n    \n}",
  "sourcePath": "/Users/jesse/Desktop/moodles/secondGo/HacklabWeekendProjectOne/contracts/BlockchainForPeace.sol",
  "compiler": {
    "name": "solc",
    "version": "0.4.24+commit.e67f0147.Emscripten.clang"
  },
  "schemaVersion": "2.0.1",
  "updatedAt": "2018-08-19T20:09:53.999Z"
}