{
  "contractName": "BlockchainForPeace",
  "abi": [
    {
      "constant": true,
      "inputs": [],
      "name": "charity",
      "outputs": [
        {
          "name": "",
          "type": "address"
        }
      ],
      "payable": false,
      "stateMutability": "view",
      "type": "function"
    },
    {
      "constant": true,
      "inputs": [],
      "name": "raised",
      "outputs": [
        {
          "name": "",
          "type": "uint256"
        }
      ],
      "payable": false,
      "stateMutability": "view",
      "type": "function"
    },
    {
      "constant": true,
      "inputs": [
        {
          "name": "",
          "type": "uint256"
        }
      ],
      "name": "donations",
      "outputs": [
        {
          "name": "donor",
          "type": "address"
        },
        {
          "name": "message",
          "type": "string"
        },
        {
          "name": "value",
          "type": "uint256"
        }
      ],
      "payable": false,
      "stateMutability": "view",
      "type": "function"
    },
    {
      "inputs": [],
      "payable": false,
      "stateMutability": "nonpayable",
      "type": "constructor"
    },
    {
      "anonymous": false,
      "inputs": [
        {
          "indexed": true,
          "name": "from",
          "type": "address"
        },
        {
          "indexed": false,
          "name": "amount",
          "type": "uint256"
        },
        {
          "indexed": false,
          "name": "message",
          "type": "string"
        }
      ],
      "name": "Donate",
      "type": "event"
    },
    {
      "constant": false,
      "inputs": [],
      "name": "fallback",
      "outputs": [],
      "payable": true,
      "stateMutability": "payable",
      "type": "function"
    },
    {
      "constant": false,
      "inputs": [
        {
          "name": "_message",
          "type": "string"
        }
      ],
      "name": "messageForPeace",
      "outputs": [],
      "payable": true,
      "stateMutability": "payable",
      "type": "function"
    },
    {
      "constant": true,
      "inputs": [
        {
          "name": "_index",
          "type": "uint256"
        }
      ],
      "name": "getDonation",
      "outputs": [
        {
          "name": "",
          "type": "address"
        },
        {
          "name": "",
          "type": "string"
        },
        {
          "name": "",
          "type": "uint256"
        }
      ],
      "payable": false,
      "stateMutability": "view",
      "type": "function"
    },
    {
      "constant": true,
      "inputs": [],
      "name": "getDonationLength",
      "outputs": [
        {
          "name": "",
          "type": "uint256"
        }
      ],
      "payable": false,
      "stateMutability": "view",
      "type": "function"
    }
  ],
  "bytecode": "0x608060405234801561001057600080fd5b5033600160006101000a81548173ffffffffffffffffffffffffffffffffffffffff021916908373ffffffffffffffffffffffffffffffffffffffff160217905550610978806100616000396000f300608060405260043610610083576000357c0100000000000000000000000000000000000000000000000000000000900463ffffffff16806344a6a8f014610088578063552079dc146100b3578063934aa023146100bd578063a9b5ae8314610114578063ef07a81f14610170578063f0ea4bfc14610250578063f8626af81461027b575b600080fd5b34801561009457600080fd5b5061009d61035b565b6040518082815260200191505060405180910390f35b6100bb610368565b005b3480156100c957600080fd5b506100d26103e2565b604051808273ffffffffffffffffffffffffffffffffffffffff1673ffffffffffffffffffffffffffffffffffffffff16815260200191505060405180910390f35b61016e600480360381019080803590602001908201803590602001908080601f0160208091040260200160405190810160405280939291908181526020018383808284378201915050505050509192919290505050610408565b005b34801561017c57600080fd5b5061019b6004803603810190808035906020019092919050505061061d565b604051808473ffffffffffffffffffffffffffffffffffffffff1673ffffffffffffffffffffffffffffffffffffffff16815260200180602001838152602001828103825284818151815260200191508051906020019080838360005b838110156102135780820151818401526020810190506101f8565b50505050905090810190601f1680156102405780820380516001836020036101000a031916815260200191505b5094505050505060405180910390f35b34801561025c57600080fd5b50610265610778565b6040518082815260200191505060405180910390f35b34801561028757600080fd5b506102a66004803603810190808035906020019092919050505061077e565b604051808473ffffffffffffffffffffffffffffffffffffffff1673ffffffffffffffffffffffffffffffffffffffff16815260200180602001838152602001828103825284818151815260200191508051906020019080838360005b8381101561031e578082015181840152602081019050610303565b50505050905090810190601f16801561034b5780820380516001836020036101000a031916815260200191505b5094505050505060405180910390f35b6000600280549050905090565b346000808282540192505081905550600160009054906101000a900473ffffffffffffffffffffffffffffffffffffffff1673ffffffffffffffffffffffffffffffffffffffff166108fc349081150290604051600060405180830381858888f193505050501580156103df573d6000803e3d6000fd5b50565b600160009054906101000a900473ffffffffffffffffffffffffffffffffffffffff1681565b60003411151561041757600080fd5b60026060604051908101604052803373ffffffffffffffffffffffffffffffffffffffff168152602001838152602001348152509080600181540180825580915050906001820390600052602060002090600302016000909192909190915060008201518160000160006101000a81548173ffffffffffffffffffffffffffffffffffffffff021916908373ffffffffffffffffffffffffffffffffffffffff16021790555060208201518160010190805190602001906104d992919061086f565b5060408201518160020155505050600160009054906101000a900473ffffffffffffffffffffffffffffffffffffffff1673ffffffffffffffffffffffffffffffffffffffff166108fc349081150290604051600060405180830381858888f1935050505015801561054f573d6000803e3d6000fd5b503460008082825401925050819055503373ffffffffffffffffffffffffffffffffffffffff167f4c4cf652c6f14d29f3d8b821ba41309afba5bf3a6f10b64d61665a235049711d34836040518083815260200180602001828103825283818151815260200191508051906020019080838360005b838110156105df5780820151818401526020810190506105c4565b50505050905090810190601f16801561060c5780820380516001836020036101000a031916815260200191505b50935050505060405180910390a250565b60006060600061062b6108ef565b60028581548110151561063a57fe5b9060005260206000209060030201606060405190810160405290816000820160009054906101000a900473ffffffffffffffffffffffffffffffffffffffff1673ffffffffffffffffffffffffffffffffffffffff1673ffffffffffffffffffffffffffffffffffffffff168152602001600182018054600181600116156101000203166002900480601f0160208091040260200160405190810160405280929190818152602001828054600181600116156101000203166002900480156107435780601f1061071857610100808354040283529160200191610743565b820191906000526020600020905b81548152906001019060200180831161072657829003601f168201915b505050505081526020016002820154815250509050806000015181602001518260400151819150935093509350509193909250565b60005481565b60028181548110151561078d57fe5b90600052602060002090600302016000915090508060000160009054906101000a900473ffffffffffffffffffffffffffffffffffffffff1690806001018054600181600116156101000203166002900480601f01602080910402602001604051908101604052809291908181526020018280546001816001161561010002031660029004801561085f5780601f106108345761010080835404028352916020019161085f565b820191906000526020600020905b81548152906001019060200180831161084257829003601f168201915b5050505050908060020154905083565b828054600181600116156101000203166002900490600052602060002090601f016020900481019282601f106108b057805160ff19168380011785556108de565b828001600101855582156108de579182015b828111156108dd5782518255916020019190600101906108c2565b5b5090506108eb9190610927565b5090565b606060405190810160405280600073ffffffffffffffffffffffffffffffffffffffff16815260200160608152602001600081525090565b61094991905b8082111561094557600081600090555060010161092d565b5090565b905600a165627a7a723058208927186435e5752ea61683503f15c7188e81cd040ac8f6cb85be81be946efc9a0029",
  "source": "pragma solidity ^0.4.24;\n\ncontract BlockchainForPeace {\n    \n\n    // to see the total raised \n    uint public raised;\n    address public charity; \n    \n    //struct for the donation \n    struct Donation {\n        address donor; \n        string message; \n        uint value; \n    }\n    \n    Donation[] public donations; \n    \n    //mapping an address to the donation struct \n    //mapping (address => donation) public donors;\n    event Donate(address indexed from, uint amount, string message);\n    \n    //constructor to initiate the address of the charity being donated to\n    constructor () public {\n        charity = msg.sender;\n    }\n   \n    // payable function which auto transfers money to charity address, collects the value and increases the total value counter.\n     function fallback() payable public {\n        raised += msg.value;\n        charity.transfer(msg.value);\n     }\n    // optional message to be sent with donation, peace message.\n    function messageForPeace(string _message) payable public {\n        require(msg.value > 0);\n        donations.push(Donation(msg.sender, _message, msg.value));\n        // Donations[msg.sender].value += msg.value;\n        // require(donors[msg.sender].value != 0);\n        // donors[msg.sender].message = _message;\n        charity.transfer(msg.value);\n        raised += msg.value;\n        emit Donate(msg.sender, msg.value, _message);\n    }\n\n    function getDonation(uint _index) public view returns (address, string, uint) {\n        Donation memory don = donations[_index];\n        return (don.donor, don.message, don.value);\n    }\n    \n    function getDonationLength() public view returns (uint){\n        return donations.length;\n    }\n}",
  "sourcePath": "/Users/rhome/Documents/HacklabWeekendProjectOne/contracts/BlockchainForPeace.sol",
  "compiler": {
    "name": "solc",
    "version": "0.4.24+commit.e67f0147.Emscripten.clang"
  },
  "schemaVersion": "2.0.1",
  "updatedAt": "2018-08-19T21:51:41.876Z"
}